:020000040800F2
:10000000405D0024710300088BE40008ADD20008B5
:1000100089E40008CF1600083D1301080000000025
:10002000000000000000000000000000DDF80008F3
:10003000651A0008000000005DE90008FDF80008EE
:100040008B0300088B0300088B0300088B03000858
:100050008B0300088B0300088B0300088B03000848
:100060008B0300088B0300088B030008D1160008DF
:10007000DD1600088B0300088B0300088B030008C3
:100080008B0300088B0300088B0300088B03000818
:100090008B0300088B0300088B0300088B03000808
:1000A0008B0300088B0300088B0300088B030008F8
:1000B0008B0300088B0300088B0300088B030008E8
:1000C0008B0300088B0300088B03000811F700085E
:1000D0008B0300081D1301088B030008311301086E
:1000E0008B0300088B030008000000008B0300084E
:1000F0008B0300088B0300088B0300088B030008A8
:100100008B030008D5EB00088B0300088B03000865
:100110008B0300088B030008E5FA00088B03000836
:100120008B0300088B0300088B0300088B03000877
:100130008B0300088B0300088B0300088B03000867
:1001400000000000000000000000000000000000AF
:100150008B0300088B0300088B0300088B03000847
:100160008B0300088B0300088B0300088B03000837
:100170008B0300088B0300088B03000800000000BD
:100180008B0300088B0300088B0300088B03000817
:100190008B0300088B0300088B0300088B03000807
:1001A0008B0300088B0300088B0300088B030008F7
:1001B0008B0300088B0300088B0300088B030008E7
:1001C0008B0300088B0300088B0300088B030008D7
:1001D0008B0300088B0300088B0300088B030008C7
:1001E0008B0300088B0300088B0300088B030008B7
:1001F0008B0300088B0300088B0300088B030008A7
:100200008B0300088B0300088B0300088B03000896
:100210008B0300088B0300088B0300088B03000886
:100220008B0300088B0300088B030008000000000C
:100230008B0300088B030008000000008B030008FC
:100240008B0300088B0300088B0300088B03000856
:100250008B0300088B0300088B0300088B03000846
:100260008B0300088B0300088B0300088B03000836
:100270008B0300088B0300088B03000800000000BC
:100280008B0300088B0300088B03000800000000AC
:10029000000000008B03000800F002F800F058F89E
:1002A0000AA090E8000C82448344AAF10107DA45D1
:1002B00001D100F04DF8AFF2090EBAE80F0013F0CB
:1002C000010F18BFFB1A43F00103184758B601008D
:1002D00078B60100103A24BF78C878C1FAD852071E
:1002E00024BF30C830C144BF04680C6070470000B0
:1002F0000023002400250026103A28BF78C1FBD82F
:10030000520728BF30C148BF0B60704766291AF0FA
:100310000C84642900F08A81732900F0B4860020DF
:1003200070471FB51AF0F4FB9DE8030000F0D4FB02
:1003300000F030FF0400002000211AF0D3FBE06041
:1003400000F09AFB1FBD10B5002001F0B3F810BDFE
:1003500001F0F3F81146FFF7E4FF16F013FA01F08D
:1003600011F903B4FFF7EFFF03BC15F051F80000DB
:100370000948804709480047FEE7FEE7FEE7FEE739
:10038000FEE7FEE7FEE7FEE7FEE7FEE70448054975
:10039000054A064B7047000031FA00089902000830
:1003A00040570024405D0024405900244059002457
:1003B000704770B5064600F073FB056806F10B0048
:1003C00020F00704B4429CBF002070BD2B466A6831
:1003D000BAB11068A04210D304F1080188423CBFB2
:1003E0005068586007D35168101941601168091BA3
:1003F000016058601460101D70BD13465268002AD9
:10040000E7D12146284600F053FB0028DED170BD1D
:1004100070B50446051F00F043FB0068002C14BFB4
:10042000446870BD002C18BFAC423CBF20466468D5
:10043000F8D301680A18AA4218BF456003D12A6898
:1004400005461144016028684119A1421CBF6C6037
:1004500070BD6168696021680844286070BD53EA16
:10046000020C00F069802DE9F04B4FF00006002BE4
:100470001FBFB3FA83F503FA05F424FA05F65E40CC
:1004800012BF1643B2FA82F502FA05F4C5F120054F
:100490001EBF22FA05FC44EA0C04203556EA044C3F
:1004A0004FEA144418BF641C4FF000084FF00009D5
:1004B000904271EB030C39D3002919BFB1FA81F7CF
:1004C00001FA07F6B0FA80F700FA07F6C7F120073D
:1004D0001EBF20FA07FC46EA0C062037B6FBF4FCE8
:1004E000A7EB0507103F07F01F0BCBF120062CFAF6
:1004F00006F60CFA0BFB44BFB3460026202FA4BF20
:100500005E464FF0000B5BEA060C08BF4FF0010B94
:1005100019EB0B0948EB0608ABFB027C06FB02CC8F
:100520000BFB03CCC01B71EB0C01C1E70B46024671
:1005300041464846BDE8F08B13B54FF000004FF040
:100540000001AFF30080BDE81C4070470FB40449C0
:1005500010B503AA029800F09BFD10BC5DF814FBD7
:10056000600700240FB41CB5074B06AA7B446946FC
:100570000090059800F05DFD0020694600F06CFDDC
:100580001CBC5DF814FB0000E90A000070B50446CD
:1005900085690068C10601D5302600E02026C00725
:1005A00007D070BDD4E9012130469047206A401C35
:1005B00020626D1EF6D570BD70B504468569007861
:1005C000C00707D170BDD4E9012120209047206ADF
:1005D000401C20626D1EF6D570BD70B50C460546F8
:1005E000012A05D02878800600D5EA69002302E0B8
:1005F000012305E05B1C934202D2E05C0028F9D1A4
:10060000A869E618C01AA861286A18442862284612
:10061000FFF7BCFF04E0D5E9012114F8010B904776
:10062000B442F8D32846FFF7C7FF70BD2DE9F0416B
:100630000646002410687529314616A510D0AFF380
:100640000080002802DA404213A507E031688A07DB
:1006500001D512A502E0490704D511A5012401E046
:10066000AFF3008000210A2206F1240709E0B0FB65
:10067000F2FCB0FBF2F302FB1C0030307854184659
:10068000491C0028F3D123462A463046BDE8F041F4
:1006900000F063BA000000002D0000002B000000F5
:1006A000200000002DE9F05F894604464FF0000A63
:1006B000DFF874B1FB44C0F820A02046E168884709
:1006C000002874D0252806D0D4E901219047206A5B
:1006D000401C2062F1E700265F462046E16888471B
:1006E0002028054607DB312D05D2781910F8200C9B
:1006F00008B10643F1E7B00701D526F00406C4F8B7
:100700001CA00027C4F818A02A2D09D028461AF0EA
:10071000C3F938B304EB8708303DC8F8185019E026
:1007200059F8041B204604EB87029161E168884771
:10073000012F054618D1E069002820DA26F02006AE
:100740001DE0D8F8180000EB800005EB40003038C1
:10075000C8F818002046E168884705461AF09CF959
:100760000028EED1012F0AD02E2D08D12046E168B5
:1007700088477F1C0546022F46F02006C4DBA0698F
:10078000002803DA404246F00106A061F00701D0DC
:1007900026F010066C2D0BD0682D09D04C2D39D0C9
:1007A0006A2D35D0742D35D07A2D33D016E038E04F
:1007B000E1682F4620468847B842054609D16C2F8C
:1007C00026D04FF48060E1680643204688470546FE
:1007D00004E06C2F1AD04FF4807006430DB3A5F1DE
:1007E0004100192802D8203546F400664A462946B9
:1007F000204626604E46FFF789FD80B101280BD0C8
:10080000F61D26F0070000F1080956E74020E4E74E
:100810008020D8E70020D6E706F104094DE72846F6
:1008200052E7206ABDE8F09FF0A6010010B504462B
:1008300003E015F081FF401C09D014F8010B0549B5
:100840000028F6D1BDE810400A2015F075BF4FF022
:10085000FF3010BD600700240B460146184600F02B
:1008600034BC10B5431C02E010F8011B71B18107C4
:10087000FAD14FF0013202C88C1A8C4314EAC2112B
:10088000F9D0C01A0A0603D0C01E10BDC01A10BD90
:100890000A0401D0801E10BD0902FCD0401E10BD0C
:1008A00040EA010370B59B072ED14FF00136042AB0
:1008B0002AD308C810C99D1B9D43121F15EAC615EF
:1008C00017D0D8B2E1B2401A50EA056110D198B2FF
:1008D000A1B2401A50EA05410AD123F07F4024F02A
:1008E0007F41401A50EA052102D1180EA0EB146096
:1008F00070BDA342DBD018BA21BA884201D90120C9
:1009000070BD4FF0FF3070BD0AB9002070BD10F807
:10091000013B11F8014B63B1A3420AD1521E08D02A
:1009200010F8013B11F8014B1BB1A34201D1521E3B
:10093000EDD1181B70BD032A40F2308010F0030C7B
:1009400000F0158011F8013BBCF1020F624498BF22
:1009500011F801CB00F8013B38BF11F8013BA2F1BF
:10096000040298BF00F801CB38BF00F8013B11F03A
:10097000030300F0C183083AC0F0088051F8043B3B
:10098000083A51F804CBA0E80810F5E7121D5CBF47
:1009900051F8043B40F8043BAFF30080D20724BF7A
:1009A00011F8013B11F801CB48BF11F8012B24BF0E
:1009B00000F8013B00F801CB48BF00F8012B70475D
:1009C00002F0FF0343EA032242EA024200F00AB8BF
:1009D00002F0FF0343EA032242EA024200F024B895
:1009E0004FF000020429C0F0128010F0030C00F058
:1009F0001B80CCF1040CBCF1020F18BF00F8012BD6
:100A0000A8BF20F8022BA1EB0C0100F00DB85FEAA3
:100A1000C17C24BF00F8012B00F8012B48BF00F86F
:100A2000012B70474FF0000200B5134694469646DE
:100A3000203922BFA0E80C50A0E80C50B1F12001F1
:100A4000BFF4F7AF090728BFA0E80C5048BF0CC09F
:100A50005DF804EB890028BF40F8042B08BF7047FD
:100A600048BF20F8022B11F0804F18BF00F8012B6F
:100A7000704770477047704770B5064C7C44064D10
:100A80007D4403E0206820448047241DAC42F9D116
:100A900070BD0000E0AE0100E4AE01007047000050
:100AA00000487047480000247047704770477047FF
:100AB00038B504460A4600206946AFF30080002896
:100AC00008BF38BD02460099204600F083FB012094
:100AD00038BD012000F016BDF8B5AFF30080054623
:100AE00000200C46102000BF0646A819A0420DD9D0
:100AF000324669460020AFF30080070008BF00F0CF
:100B000001FD0098A04218BF0546C419FFF7C8FFB1
:100B100005600746F01D20F007004619284600F042
:100B20000AF8B44208BFF8BDA21B31463868BDE8D8
:100B3000F84000F04FBB00210160C0E90110704790
:100B40001020704710B500F02DFB006810BD10B5E7
:100B5000044600F027FB046010BD2DE9F0470D4668
:100B600099469246044600F124080168880604D597
:100B7000E06921F01001216000E00120A84201DDC0
:100B8000471B00E00027A1697A1902EB0900081A47
:100B9000A0612078C00602D42046FFF7F7FC0026AB
:100BA00008E0D4E901211AF806009047206A401CA9
:100BB000761C20624E45F4DB2078C0060AD520461C
:100BC000FFF7E4FC06E0D4E9012130209047206AD9
:100BD000401C2062381EA7F10107F4DC07E0D4E9CD
:100BE000012118F805009047206A401C2062281E49
:100BF000A5F10105F3DC2046FFF7DEFC20780006B6
:100C000002D50220BDE8F0870120FBE72DE9FF4F68
:100C10000C461E464FF0FF378BB0D2E90001DDF8DD
:100C200060800A908A46C1F30A5505B93D46002105
:100C300008464FF00000BAF1000F00F4400005DA5A
:100C400000EB80004FF4400101EA50004FEA905958
:100C5000B9F1010F00DDB9460A9850EA4A000ED0FA
:100C600044F61050A5F2FF3545432F14B8F1000F9C
:100C70001ED07542291E1EDDC9F100021CE0B8F12C
:100C8000010F4FF0000001D0302103E0F24305E0F6
:100C90002154401CB042FBDB30460022002121548D
:100CA0000B99C1F80880C1E900200FB0BDE8F08FB2
:100CB000BD1B6D1CDEE74A4600DA694206A800F05B
:100CC00083FB06AB93E8070003AB83E807005046BD
:100CD0000A9919F0D9F88DE80700A0F500501F38DF
:100CE00000900398002D0ADD42F21F014A46084495
:100CF000002303A90390684619F042FB09E0A0F520
:100D000000504A461F38002303A90390684619F093
:100D10004CFB8DE807000004000C03D04FF0FF30BF
:100D2000410800E01046B8F1000F03D00022009205
:100D300015461EE0751E05D400F0C0FA303262552B
:100D40006D1EF9D5B3460122084302D000227F1C54
:100D500004E02078302801D100227F1E002A099764
:100D600084D01DE0112D07DA00F0A8FA3032625568
:100D70006D1C50EA0102F5D1084302D00098C8B1B9
:100D80000EE00021681E05E0235C625C635422547F
:100D9000401E491C8142F7DBAB46A81B401E099050
:100DA000002004F80B000B98099AC0F80880C0E9ED
:100DB000002B7AE711264FF0000857E72DE9F04F96
:100DC00088460446D21D22F0070191B0D1E9000106
:100DD000CDE90A0119F020FC02460B98C00F01D0A2
:100DE0002D2007E02068810701D52B2002E020217B
:100DF00001EAC000032A099001D0072A05DB034657
:100E00004146204600F0A0FA0BE12078800601D58B
:100E1000E06900E00620B8F1650F814606D0B8F120
:100E2000660F18D0B8F1670F70D131E00020B9F12A
:100E3000110F009001DB112301E009F101030AAA5F
:100E400001A90CA8FFF7E2FEDDE90C70002609F10C
:100E50000105834647E001204B4600904FF00047D4
:100E60000AAA01A90CA8FFF7D1FEDDE90DB00C9983
:100E70005D46002610B909F101000D18B9EB050017
:100E800003D4C0F1FF3609F10105A5EB09002BE001
:100E9000B9F1010F01DA4FF001090020B9F1110F8A
:100EA0000090484601DD112300E003460AAA01A98B
:100EB0000CA8FFF7ABFEDDE90C704D46002683461B
:100EC000207800070AD4AB4500DA5D4601A8012D61
:100ED00004DD411911F8011C302907D04F4502DA11
:100EE00017F1040F04DA012082460FE06D1EEEE7D1
:100EF000002F02DCED1B3E4403E0781CA84200DD1D
:100F00007D1CB81B00F1010A4FF000472078000754
:100F100003D4AA4501DB4FF0FF3A0021B7F1004F9F
:100F20000DF143088DF8431024D002202B23002F0D
:100F300001DA7F422D230A21021EA0F1010000DC0C
:100F40005FB197FBF1FC97FBF1F201FB1C7C1746AC
:100F50000CF1300C08F801CDEEE7A8F101000370A8
:100F60002188090501D5452100E06521A0F101088E
:100F700000F8011C09980FA9A1EB0807FF1D00B19B
:100F80000120411901EBEA70A1693844081A401E9A
:100F9000A0612078C00602D42046FFF7F7FA09982E
:100FA00028B1D4E901219047206A401C20622078B2
:100FB000C00622D52046FFF7E9FA1EE0002E04DB2A
:100FC000B34502DD01A8805D00E03020D4E90121B5
:100FD0009047206A401C2062761CAAF101005FEA5B
:100FE000000A0AD100F0D6F8C0680168405CD4E974
:100FF00001219047206A401C2062281EA5F10105AE
:10100000DCDC07E0D4E9012118F8010B9047206AE5
:10101000401C2062381EA7F10107F3DC2046FFF7D1
:10102000CBFA032011B041E601694A1C026108783D
:10103000704700B58FB0CDE9013100210591054918
:101040007944CDE9031011466846FFF72BFB0FB03A
:1010500000BD0000E5FFFFFF0A6802F8010B0A600F
:10106000704710B5436913B1AFF3008001E0FFF79B
:10107000B4FA012010BD127800F124010A70002298
:101080004A700122EDE711684FF0FF32E9E70000F6
:10109000074B70B50D467B44FFF7CBFF044628464F
:1010A00000F004FA10B14FF0FF3070BD204670BD63
:1010B0009F56010010B5002000F01DFAFFF743F91C
:1010C000BDE81040012014F0A3B92DE9F041074616
:1010D00015460E461020FFF76CF904000AD0676031
:1010E000C4E9026500F05AF801682160046000203C
:1010F000BDE8F0810120FBE710B5203AC0F00B807D
:10110000B1E81850A0E81850B1E81850A0E81850FD
:10111000203ABFF4F5AF5FEA027C24BFB1E8185073
:10112000A0E8185044BF18C918C0BDE810405FEAD5
:10113000827C24BF51F8043B40F8043B08BF704751
:10114000D20728BF31F8023B48BF11F8012B28BF56
:1011500020F8023B48BF00F8012B704780E8FF1FD2
:10116000C0F834D0C0F838E0C0F83CE04FF00000E0
:10117000704700BF80EC200B704700BF80EC200B55
:10118000704700BFC0EC200B70470000004870475C
:101190004000002400487047600000240048704769
:1011A00078000024004870474000002470B5A0FB80
:1011B0000140B4F1805170F1000024BF002070BDE7
:1011C0002046FFF7F6F805001CBF2146FFF708FC94
:1011D000284670BD034640688C46002818BF8842E8
:1011E0003CBF03464068F8D318681844884207D0CB
:1011F0000CF1030020F00700001D411A521A0146AD
:10120000081D0A60FFF704B92DE9F04791460C4626
:101210008046FFF745FC0768604234EA000001D1D0
:10122000042C02D20520BDE8F087601E40F00706BE
:1012300009F10B0020F007054D459CBF0020BDE8DB
:10124000F0873B467A6882B31468101D404206EA74
:10125000000C644525D9A4EB0C00854221D8BCF1D3
:10126000000F0BD0104601686244A1EB0C01116025
:1012700041685160C0F800C058600346116805F12C
:101280000800814205D35019491B01601560586060
:10129000034652F8040F58600020C8F80020BDE84B
:1012A000F08713465268002ACED129463846FFF708
:1012B000FFFB0028C5D10620BDE8F08730B5B0F1AE
:1012C0000A0271F100034FEA900E4EEA817EB0EB04
:1012D0000E0061EB91014FEA101E4EEA017E10EB09
:1012E0000E0041EB11114FEA102E4EEA016E10EB89
:1012F0000E0041EB11214FEA104E4EEA014E10EB69
:101300000E0041EB1141401841F100014FEAD000BD
:1013100040EA41704FEAD1014FEA810444EA9074F7
:1013200010EB800544EB01046D1944EB0404521BDF
:10133000A3414FF0000348BF0A3200D530BD401C26
:1013400041F1000130BD00002DE9F0411F46044687
:1013500003260168072A01F4006004DB08B116A522
:1013600005E016A503E008B115A500E015A521F0DC
:1013700010002060A069C01EA0610FB1401EA061D6
:101380002046FFF703F94FB1D4E9012138469047D1
:10139000206A401C2062C01C206206E0206AFAE736
:1013A000D4E9012115F8010B9047761EF8D22046AA
:1013B000FFF702F9BDE8F0814E414E006E616E000C
:1013C000494E4600696E66002DE9F0478146164693
:1013D0008AB0354878440DC88DE80D00324878440D
:1013E000801C03AC0DC884E80D0041F69B30084416
:1013F000372190FBF1F290FBF1F5A5F1800501FB9F
:1014000012041B3C02D56442012000E00020DFF8FA
:1014100098A080460027FA44AAF1BE0A0EE0E00731
:101420000AD03246684607EB470101230AEB8101E7
:1014300018F0BBFF8DE8070064107F1C002CEED174
:10144000194F7F44AE3F19E0E80715D007EB0410B1
:101450000DF1180A90E80E008AE80E00C068F0420C
:1014600001D1981908903246012306A903A818F063
:101470009CFF03AB83E807006D10641C002DE3D1D3
:101480004FF0010332466946B8F1000F03A802D0BD
:1014900018F076FF01E018F088FFC9E90001C9F8EB
:1014A00008200AB0BDE8F087609A0100007B00F0D8
:1014B000800070472DE9F0410646FFF76FFE804639
:1014C000454613E016B1E068B0420ED120682860AE
:1014D000D4E90101D8F8007088472046FEF798FF4C
:1014E000D8F80000B842EBD100E025462C68002C6B
:1014F000E8D1BDE8F08110B500F052F8BDE8104029
:1015000000F049B810B500F063F8BDE8104000F0F5
:1015100042B8000086469EE8FF1FDEF834D0DEF8B1
:101520003CE0704790EC200B704700BF90EC200B24
:10153000704700BFD0EC200B70477546FFF726FEC2
:10154000AE4605006946534620F00700854618B0B0
:1015500020B5FEF71BFFBDE820404FF000064FF01E
:1015600000074FF000084FF0000BAC46ACE8C00994
:10157000ACE8C009ACE8C009ACE8C00921F007013B
:101580008D46704710B50446AFF300802046BDE895
:101590001040FEF7E6BE002801D013F039BF7047B7
:1015A00010B5002102A000F079F8012010BD000064
:1015B000534947414252543A2041626E6F726D6105
:1015C0006C207465726D696E6174696F6E000000E5
:1015D00010B5012805D0002103A000F05FF801201C
:1015E00010BD09A1F8E7000053494752544D454D3D
:1015F0003A204F7574206F662068656170206D65B4
:101600006D6F7279000000003A2048656170206DAE
:10161000656D6F727920636F7272757074656400A6
:1016200030B44FF0013C50F8042BCCFA52F451F88E
:10163000043BD51A20D1FCB950F8042BCCFA52F453
:1016400051F8043BD51A17D1B4B950F8042BCCFA91
:1016500052F451F8043BD51A0ED16CB950F8042B52
:10166000CCFA52F451F8043BD51A05D1002CDAD04B
:1016700030BC4FF00000704729BAB1FA81F111F087
:101680001801D1F120008440F2D1CA40CB4012F0C1
:10169000FF0213F0FF0330BCD01A704770B5054647
:1016A0000C460A2000E06D1C13F0B3FE35B128781B
:1016B0000028F8D102E0641C13F0ABFE14B12078CE
:1016C0000028F8D1BDE870400A2013F0A2BEFEE762
:1016D000014800F033BD00BF54080024014800F069
:1016E0002DBD00BFDC0700240168C64A914229D005
:1016F000C54A91421CBFC54A914223D0C44A914277
:101700001CBFC44A91421DD0C34A91421CBFC34A68
:10171000914217D0C24A91421CBFC24A914211D095
:10172000C14A91421CBFC14A91420BD0C04A91426A
:101730001CBFC04A914205D0BF4A91421CBFC04A5B
:10174000914217D16FF00F02182352FA81F2B2FBC7
:10175000F3F35F2A03F0070C094B13F80C30C36551
:1017600040F2FF3321EA030188BF41F004018165A3
:1017700008467047B14A9142E4D021F0FF01F6E7F4
:10178000E4B8010810B50268AE4B1E4C9A421CBF6B
:10179000AD4B9A420BD0AD4B9A421CBFAC4B9A4218
:1017A00005D0AC4B9A421CBFAD4B9A4211D1D3B27B
:1017B000A3F108011422B1FBF2F304EB830104F15D
:1017C000800203F01F030124603004FA03F30EC00B
:1017D00010BDA14B9A42EAD0A4F55B71D3B28A4204
:1017E000E6D0094CA3F110011823B1FBF3F10B462D
:1017F000A24204F1AA0488BF0833A242034C28BFC6
:101800000B46DAE7005802580F0402400008024075
:1018100001790139072988BF704710B50268894BE3
:101820009A421CBF884B9A420BD0884B9A421CBFED
:10183000874B9A4205D0874B9A421CBF884B9A42ED
:101840000DD18B000B4C1A1904F14003012404FA4A
:1018500001F1C0E91B234167BDE8104070477E4B92
:101860009A42EED07D4C8B00A242EBD0004CEAE7CE
:10187000000902400059025870B5D0F800C0614C10
:10188000D0F858E0A44541D05F4DAC451CBF5F4D3A
:10189000AC453BD05E4DAC451CBF5E4DAC4535D034
:1018A0005D4DAC451CBF5D4DAC452FD05C4DAC458E
:1018B0001CBF5C4DAC4529D05B4DAC451CBF5B4D9E
:1018C000AC4523D05A4DAC451CBF5A4DAC451DD03C
:1018D000594DAC451CBF594DAC4517D0584DAC4582
:1018E0001CBF584DAC4511D0574DAC451CBF574D92
:1018F000AC450BD0564DAC451CBF564DAC4505D044
:10190000554DAC451CBF554DAC4571D1D0E919566C
:101910006E60C56E15B1D0E91C566E60A44529D025
:10192000394CA4451CBF394CA44523D0384CA445A0
:101930001CBF384CA4451DD0374CA4451CBF374CA8
:10194000A44517D0364CA4451CBF364CA44511D035
:10195000354CA4451CBF354CA4450BD0344CA44594
:101960001CBF344CA44505D0334CA4451CBF334C9C
:10197000A4451CD1C46D3F2504F01F0405FA04F4EE
:10198000CEF80840DCF8006026F48026CCF8006031
:10199000CCF804308068402802BFCCF80820CCF88E
:1019A0000C1070BDCCF80810CCF80C2070BDF94CB0
:1019B000A4451CBFF14CA44511D0F14CA4451CBF5B
:1019C000F04CA4450BD0F04CA4451CBFEF4CA445F3
:1019D00005D0EF4CA4451CBFEF4CA4450DD1C46D00
:1019E000012504F01F0405FA04F4CEF80440CFE703
:1019F000E94DAC453FF48AAFD8E7DF4CA44518BFAA
:101A000070BDB7E7100002402800024040000240CD
:101A1000580002407000024088000240A0000240CE
:101A2000B800024010040240280402404004024072
:101A3000580402407004024088040240A00402409E
:101A4000B8040240085402581C540258305402583A
:101A500044540258585402586C5402589454025832
:101A6000805402587047EFF3108072B6FEE7000012
:101A7000F8B5044601F078FF0546002C00F0B08070
:101A800094F83500022840F0AD802768AB4EB7428D
:101A900038463CD0AA488742384638D0A9488742C1
:101AA000384634D0A8488742384630D0A7488742C5
:101AB00038462CD0A6488742384628D0A5488742C9
:101AC000384624D0A4488742384620D0A3488742CD
:101AD00038461CD0A2488742384618D0A1488742D1
:101AE000384614D0A0488742384610D09F488742D5
:101AF00038460CD09E488742384608D09D488742D9
:101B0000384604D09C48874240F0FB809A480168E0
:101B100021F01E01016007F114006FF080010268DE
:101B2000B74201EA0201016042D0FB4887421CBF74
:101B3000FA4887423CD0FA4887421CBFF94887429E
:101B400036D0F94887421CBFF848874230D0F84861
:101B500087421CBFF74887422AD0F74887421CBFFC
:101B6000F648874224D0F64887421CBFF548874292
:101B70001ED0F54887421CBFF548874218D0F3486D
:101B800087421CBFF348874212D0F34887421CBFEC
:101B9000F24887420CD0F24887421CBFF148874286
:101BA00006D0F14887421CBFF048874240F0BC8015
:101BB000206E016821F480710160386820F0010016
:101BC0003860386810F0010F10D001F0CDFE401BD6
:101BD0000628F6D320206065032084F8350003E052
:101BE00001208CE080206065012085E02068B04203
:101BF0001CBFC949884223D0C84988421CBFC84974
:101C000088421DD0C74988421CBFC749884217D0A7
:101C1000C64988421CBFC649884211D0C54988427E
:101C20001CBFC54988420BD0C44988421CBFC44967
:101C3000884205D0C34988421CBFC549884264D147
:101C4000A16DE26D3F2302F01F0203FA02F28A60E7
:101C5000B04241D0B04988421CBFB04988423BD015
:101C6000AF4988421CBFAF49884235D0AE4988424F
:101C70001CBFAE4988422FD0AD4988421CBFAD4938
:101C8000884229D0AC4988421CBFAC49884223D045
:101C9000AB4988421CBFAB4988421DD0AA49884243
:101CA0001CBFAB49884217D0A84988421CBFA9492C
:101CB000884211D0A84988421CBFA84988420BD04D
:101CC000A74988421CBFA749884205D0A649884237
:101CD0001CBFA64988422CD1D4E919014160E06EAD
:101CE00030B1016821F480710160D4E91C014160C8
:101CF000012084F835000020002184F8341001B060
:101D0000F0BD6FF00E01384609E7FE49884297D0D2
:101D10008E4AA16D904294D0E26D012302F01F0221
:101D200003FA02F24A6093E7914887423FF440AFDA
:101D300043E7FD498842CFD0DAE700BF10000240F8
:101D4000280002404000024058000240700002405B
:101D500088000240A0000240B80002401004024087
:101D6000280402404004024058040240700402402B
:101D700088040240A0040240B804024008540258FB
:101D80001C540258305402584454025858540258B3
:101D90006C5402589454025880540258002853D06E
:101DA00090F8351002294DD10168C94A914229D0D5
:101DB000C84B99421CBFC84B994223D0C74B99428C
:101DC0001CBFC74B99421DD0C64B99421CBFC64B86
:101DD000994217D0C54B99421CBFC54B994211D0AF
:101DE000C44B99421CBFC44B99420BD0C34B994280
:101DF0001CBFC34B994205D0C24B99421CBFCB4B71
:101E000099423CD10423914280F835301CBFB1483F
:101E1000814211D0B04881421CBFB04881420BD0F2
:101E2000AF4881421CBFAF48814205D0AE488142D5
:101E30001CBFAE4881420AD1086820F0010008604A
:101E4000002102E080214165012108467047A84831
:101E500081421CBFA7488142EED0A74881421CBFE7
:101E6000A6488142E8D0A64881421CBFA5488142CD
:101E7000E2D0AE4881421CBFA3488142DCE7A24BBE
:101E80009942BFD00A6822F00E020A600A6822F066
:101E900001020A609E4A914211D09E4A91421CBFA3
:101EA0009D4A91420BD09D4A91421CBF9C4A91424F
:101EB00005D09C4A91421CBF944A914227D1016EA1
:101EC00001230A6822F480720A60D0E9161202F037
:101ED0001F0203FA02F24A60D0E919124A60C16E89
:101EE00031B10A6822F480720A60D0E91C124A609B
:101EF0000021012280F8341080F83520026D002A7C
:101F0000A3D080B590470021BDE880409DE7864A78
:101F10009142D4D0ECE700BF2800024040000240CC
:101F2000580002407000024088000240A0000240B9
:101F3000B80002401004024028040240400402405D
:101F4000580402407004024088040240B804024071
:101F5000A0040240085402581C540258305402583D
:101F600044540258585402586C540258945402581D
:101F700080540258B0B50446002800F0A6802068BE
:101F8000016821F00101016051498842014664D095
:101F900050498842014660D04F49884201465CD092
:101FA0004E498842014658D04D498842014654D096
:101FB0004C498842014650D04B49884201464CD09A
:101FC0004A498842014648D049498842014644D09E
:101FD00048498842014640D04749884201463CD0A2
:101FE00046498842014638D045498842014634D0A6
:101FF00044498842014630D04349884201462CD0AA
:10200000424988421CBF4249884211D04149884216
:102010001CBF414988420BD0404988421CBF4049FF
:10202000884205D03F4988421CBF3F49884210D1B1
:102030000021016041608160C16001612046FFF7BD
:1020400053FBE16D012201F01F0102FA01F1416031
:1020500015E03649884238D1344900220A602121EE
:1020600042608260C260026141612046FFF73CFB32
:10207000E16D3F2201F01F0102FA01F1816020466B
:10208000FFF780FB206E20B100210160D4E9190127
:10209000416060680138082808D22046FFF7B8FB85
:1020A000E06E00210160D4E91C014160002504F1CB
:1020B0003C001821C4E91B556567FEF7B3FC656554
:1020C00084F8345084F8355000E001252846B0BD2E
:1020D0001000024028000240400002405800024028
:1020E0007000024088000240A0000240B800024098
:1020F00010040240280402404004024058040240F8
:102100007004024088040240A00402409454025823
:10211000085402581C54025830540258445402586F
:10212000585402586C54025880540258B804024063
:10213000406D704790F83500704700002DE9FC4174
:1021400004460020DB4F0190DFF8E804A66DD0F8CC
:102150000080356831682068B8422AD0D64A90425B
:102160001CBFD64A904224D0D54A90421CBFD54AC3
:1021700090421ED0D44A90421CBFD44A904218D0FC
:10218000D34A90421CBFD34A904212D0D24A9042C6
:102190001CBFD24A90420CD0D14A90421CBFD14AB7
:1021A000904206D0D04A90421CBFD04A904240F0A4
:1021B000D281E16D082201F01F018A402A423ED0FF
:1021C0000423BC46B8422DD0BB4FB8421CBFBB4F06
:1021D000B84227D0BA4FB8421CBFBA4FB84221D03C
:1021E000B94FB8421CBFB94FB8421BD0B84FB84224
:1021F0001CBFB84FB84215D0B74FB8421CBFB74F3D
:10220000B8420FD0B64FB8421CBFB64FB84209D043
:10221000B54FB8421CBFB54FB84203D0B44FB84217
:1022200018BF082307681F42674608D0036823F0D9
:1022300004030360B260626D42F001026265012234
:102240008A402A4238D0B8421CBF9B4B98422AD0C1
:102250009A4B98421CBF9A4B984224D0994B984273
:102260001CBF994B98421ED0984B98421CBF984B6C
:10227000984218D0974B98421CBF974B984212D067
:10228000964B98421CBF964B98420CD0954B984267
:102290001CBF954B984206D0944B98421CBF944B60
:1022A000984240F0BE81436913F0800F1FBFB260B7
:1022B000626D42F00202626504228A402A4238D0EE
:1022C000B8421CBF7C4B98422AD07C4B98421CBF22
:1022D0007B4B984224D07B4B98421CBF7A4B984250
:1022E0001ED0DA4B98421CBFD94B984218D0D94B1C
:1022F00098421CBFD84B984212D0D84B98421CBF72
:10230000D74B98420CD0D74B98421CBFD64B984223
:1023100006D0D64B98421CBF754B984240F0838143
:10232000036813F0020F1FBFB260626D42F0040237
:102330006265102202FA01F1294248D00822B8420F
:102340002DD0BD4B98421CBFBC4B984227D0BC4BF4
:1023500098421CBFBB4B984221D0BB4B98421CBF3C
:10236000BA4B98421BD0BA4B98421CBFB94B98420B
:1023700015D0B94B98421CBFB84B98420FD0B84B00
:1023800098421CBFB74B984209D0B74B98421CBF2C
:10239000B64B984203D0BE4B984218BF0422036844
:1023A000134214D0B1600268016812F4802F06D184
:1023B000C9055EBF016821F00801016001E0080362
:1023C00001D4216C00E0A16C09B120468847E06D82
:1023D00000F01F01202000FA01F22A4200F08E8056
:1023E00020681023B8422DD0934DA8421CBF934DB6
:1023F000A84227D0924DA8421CBF924DA84221D09E
:10240000914DA8421CBF914DA8421BD0904DA842AF
:102410001CBF904DA84215D08F4DA8421CBF8F4DB8
:10242000A8420FD08E4DA8421CBF8E4DA84209D0A5
:102430008D4DA8421CBF8D4DA84203D0944DA8429B
:1024400018BF022307681F4258D0B26094F8353095
:102450000268042B19D122F016020260426922F0B0
:1024600080024261226C0AB9A26C1AB1026822F0A1
:10247000080202603F208840B060002084F83400E9
:10248000012084F83500216D5DE0016852030CD411
:10249000C9052FD4016821F010010160002084F8E3
:1024A0003400012084F8350024E0080322D4616C54
:1024B00021E000BF1000024028000240400002401E
:1024C000580002407000024088000240A000024014
:1024D000B8000240100402402804024040040240B8
:1024E000580402407004024088040240A0040240E4
:1024F000B8040240E16B09B120468847606D40B3E3
:10250000606D10F0010F1DD004214FF4165084F8B7
:102510003510B8FBF0F021680A6822F001020A6069
:10252000019A01328242019203D80A6812F0010F27
:10253000F6D10868002184F83410012160F34101CC
:1025400084F83510E16C002908BFBDE8FC81204605
:102550008847BDE8FC81464A90421CBF454A9042EC
:1025600011D0454A90421CBF444A90420BD0444A85
:1025700090421CBF434A904205D0434A90421CBF40
:10258000424A904251D10268E36D03F01F0312F0FA
:10259000040F1EBF04279F4017EA010516D19707B5
:1025A0001ED502279F4017EA010519D01104776054
:1025B0002BD491062DD4016821F00A01016000207E
:1025C00084F83400012084F8350022E0110477609B
:1025D00021D491065EBF016821F0040101601EE074
:1025E0001207B6D508229A401140B2D0016821F0F6
:1025F0000E010160012000FA03F1716000216065A5
:1026000084F8341084F835009CE7D00301D4616C61
:1026100099E7E16B97E7D00301D4A16C93E7216CB4
:1026200091E7026848E6026883E6194988423FF468
:10263000C0AD8EE7000000242800024040000240A8
:10264000580002407000024088000240A000024092
:10265000B800024010040240280402404004024036
:10266000580402407004024088040240A004024062
:1026700094540258085402581C54025830540258BA
:1026800044540258585402586C540258805402580A
:10269000B80402402DE9F843044601F065F9054607
:1026A000002C00F08B802068C94EB0422AD0C94966
:1026B00088421CBFC849884224D0C84988421CBFF0
:1026C000C74988421ED0C74988421CBFC6498842B4
:1026D00018D0C64988421CBFC549884212D0C54996
:1026E00088421CBFC44988420CD0C44988421CBFE0
:1026F000C349884206D0C34988421CBFC2498842A8
:1027000040F00581002184F83410022184F835104E
:10271000016821F00101016005E001F025F9401B8D
:10272000052846D82068016811F0010FF5D101682D
:10273000C04A04F10807B146E0CF01EA0208D4E933
:10274000052CD4E90731D4F824E045EA08053543DF
:102750004E463D432A43BEF1040F42EA0C0242EAD0
:10276000030241EA020102BFD4E90B2311431943DA
:10277000B14A1268B2F1005F24BF6568292D1FD2EB
:102780000160BEF1040F416921F0070141EA0E0129
:1027900038D1D4E90A532943A3B3BCF5005F19D05B
:1027A000BCF1000F22D1022D23D0012D18D005B38A
:1027B00028E020206065032084F83500012097E0A0
:1027C0002F2D24BFA5F13F02042A80F0948041F40C
:1027D0008011D5E7032D15D8DFE805F00E0B0E02AA
:1027E000A3F1C072B2FA82F2520904E0032D03D3BE
:1027F00008D1C3F300622AB140206065012084F84B
:10280000350075E041612046FEF76EFFE16D3F2225
:1028100001F01F0102FA01F181602068B04242D04C
:102820006C4988421CBF6C4988423CD06B49884245
:102830001CBF6B49884236D06A4988421CBF6A492E
:10284000884230D0694988421CBF694988422AD0F1
:10285000684988421CBF6849884224D06749884239
:102860001CBF674988421ED0664988421CBF664922
:10287000884218D06D4988421CBF6549884212D0F1
:10288000644988421CBF644988420CD0634988422D
:102890001CBF6349884206D0624988421CBF5B491D
:1028A000884240F08F802046FEF76CFFA0688028A9
:1028B00006BF002060606068216EC2B201380A6005
:1028C0000728D4E919124A6009D82046FEF7A0FF6C
:1028D000E06E00210160D4E91C01416003E00020AA
:1028E000C4E91B00606700200121606584F8351091
:1028F00001B0BDE8F083472DFFF442AF492D24BF5E
:10290000A5F14F02032A98BF41F4801138E73F49EF
:1029100088421CBF3E49884211D03E4988421CBFB4
:102920003D4988420BD03D4988421CBF3C49884202
:1029300005D03C4988421CBF3B4988423CD100211C
:1029400004F10807354684F83410022184F8351064
:1029500001688CCF66696FF31011402A41EAD301F8
:10296000A2F18003B3FA83F34FEA53134FEA8333A0
:1029700008BF1023A269194341EAD70141EAD601F1
:102980002E4641EAD201E26941EAD201226A41EAD5
:1029900012110160264908441421B0FBF1F08000B7
:1029A000E0652046FEF7A0FEE16D012201F01F0167
:1029B00002FA01F1416030E71C4988423FF4A2AEBF
:1029C0004020F7E6184988423FF46DAF8BE700BF1F
:1029D000100002402800024040000240580002401F
:1029E0007000024088000240A0000240B80002408F
:1029F00010040240280402404004024058040240EF
:102A00007004024088040240A0040240945402581A
:102A1000085402581C540258305402584454025866
:102A2000585402586C54025880540258B80402405A
:102A3000F8ABFDA73F8010FE0010005C2DE9FE4FB3
:102A400093460D46044600F08FFF0746002C00F029
:102A5000008294F83500022840F072812068C44951
:102A6000884201463CD0C3498842014638D0C24919
:102A70008842014634D0C1498842014630D0C0491D
:102A8000884201462CD0BF498842014628D0BE4921
:102A90008842014624D0BD498842014620D0BC4925
:102AA000884201461CD0BB498842014618D0BA4929
:102AB0008842014614D0B9498842014610D0B8492D
:102AC000884201460CD0B7498842014608D0B64931
:102AD0008842014604D0B549884240F0A181B349FB
:102AE000096811F4807F40F0B1811021002D234648
:102AF000019508BF202153F85C2F53F8045C02F0C5
:102B00001F02029301FA02F905F10808994901260A
:102B10008A46D9E0964988421CBF5146504524D088
:102B2000DF4988421CBFDF4988421ED0DE49884207
:102B30001CBFDE49884218D0DD4988421CBFDD49F0
:102B4000884212D0DC4988421CBFDC4988420CD044
:102B5000DB4988421CBFDB49884206D0DA498842FB
:102B60001CBFDA49884240F096802B6802990968B8
:102B700001F01F0206FA02F213420AD0626D01F060
:102B80001F0106FA01F142F002026265C8F8001066
:102B9000E16D2B6801F01F0104228A401A4208D01F
:102BA000616D41F004016165C8F80020E16D01F03C
:102BB0001F01082202FA01F12A68114240F0C58083
:102BC0001BF101010BD000F0CFFEBBF1000F00F0B4
:102BD000C980C01B584500F2C58020680126F44911
:102BE000884241D0504551461CBFF24988423BD0F3
:102BF000F14988421CBFF149884235D0F0498842EA
:102C00001CBFF04988422FD0EF4988421CBFEF49D2
:102C1000884229D0EE4988421CBFEE49884223D021
:102C2000ED4988421CBFED4988421DD0EC498842DD
:102C30001CBFED49884217D0EA4988421CBFA4490D
:102C4000884211D0A34988421CBFA34988420BD0B7
:102C5000A24988421CBFA249884205D0A1498842A6
:102C60001CBFA14988422CD1E16E49B1D4E91C12A4
:102C70000B681A421FBF4A60616D41F48061616553
:102C8000D4E919120B681A421ED04A60616D41F4F2
:102C90000071616518E0D24988423FF466AF2B6845
:102CA0000299BC46CF4F0968B84201F01F0206D016
:102CB00008216746914019423FF482AFE7E067463A
:102CC00058E78A498842CFD0296811EA090F3FF4B2
:102CD00021AF019900296BD0B549884218BF5045F2
:102CE00024D0B44988421CBFB34988421ED0B3499E
:102CF00088421CBFB249884218D0B24988421CBFE2
:102D0000B149884212D0B14988421CBFB0498842BB
:102D10000CD0B04988421CBFAF49884206D0AF49A9
:102D200088421CBFB049884240F0978002980068F2
:102D300000F01F0110208840C8F80000002089E042
:102D4000002084F83400802082E0606D40F00100B3
:102D500060650020C8F8001084F83400012084F871
:102D6000350077E0202060652046FEF781FE70E0A8
:102D7000100002402800024040000240580002407B
:102D80007000024088000240A0000240B8000240EB
:102D9000100402402804024040040240580402404B
:102DA0007004024088040240A0040240B8040240BB
:102DB0007F49884218BF504523D07E4988421CBFB6
:102DC0007D4988421DD07D4988421CBF7C4988428C
:102DD00017D07C4988421CBF7B49884211D07B496F
:102DE00088421CBF7A4988420BD07A4988421CBF6E
:102DF0007949884205D0794988421CBF7A4988427E
:102E000039D10298006800F01F013020884001216C
:102E1000C8F80000002084F8340084F8351019E068
:102E2000016811F0200F11D10421002D23460195D6
:102E300008BF022153F85C2F53F8045C02F01F0214
:102E4000029301FA02F905F104085FE64FF480707D
:102E50006065012003B0BDE8F08FF84988423FF477
:102E600065AF0299F74A0968904201F01F013FF4EB
:102E700061AF04205FE7F1498842C2D00299F14A6C
:102E80000968904201F01F01BFD00220BEE7012077
:102E900000FA02F129600021606584F834105EE7D1
:102EA000400002405800024070000240880002408A
:102EB000A0000240B8000240100402402804024072
:102EC000400402405804024070040240A004024042
:102ED000085402581C5402583054025844540258A2
:102EE000585402586C540258945402588054025852
:102EF00010B50446002858D094F83400012801D1B8
:102F0000022053E0012084F8340094F835000128B1
:102F100045D1022084F8350000206065D4F800C057
:102F2000DCF8000020F00100CCF800002046FEF79D
:102F3000A3FC2068B44988421CBFB449884228D009
:102F4000B34988421CBFB349884222D0B249884263
:102F50001CBFB24988421CD0B14988421CBFB1494C
:102F6000884216D0B04988421CBFB049884210D070
:102F7000AF4988421CBFAF4988420AD0AE49884257
:102F80001CBFAE49884204D0AE4988421CBFAC4940
:102F90008842016841F001010160002006E0002044
:102FA00084F834004FF4006060650120C0B210BDA9
:102FB00010000240400002405800024070000240F1
:102FC00088000240A0000240B80002401004024005
:102FD00028040240400402405804024070040240A9
:102FE00088040240B8040240A0040240B0B505467F
:102FF000002800F0F58095F83400012801D1022066
:10300000EFE0012085F8340095F83500012840F004
:10301000E180022085F83500002068652868046892
:1030200024F0010404602846FEF726FC286876494F
:10303000884202463CD0754A9042024638D0744AD3
:103040009042024634D0734A9042024630D0724ACF
:10305000904202462CD0714A9042024628D0704AD3
:103060009042024624D06F4A9042024620D06E4AD7
:10307000904202461CD06D4A9042024618D06C4ADB
:103080009042024614D06B4A9042024610D06A4ADF
:10309000904202460CD0694A9042024608D0684AE3
:1030A0009042024604D0674A904240F09C80654AB4
:1030B00012680B2363F3440202602A6C1AB102689F
:1030C00042F008020260884241D0504A90421CBF40
:1030D0004F4A90423BD04F4A90421CBF4E4A9042CA
:1030E00035D04E4A90421CBF4D4A90422FD04D4A97
:1030F00090421CBF4C4A904229D04C4A90421CBF7F
:103100004B4A904223D04B4A90421CBF4A4A9042BD
:103110001DD04A4A90421CBF494A904217D0494AA2
:1031200090421CBF484A904211D0484A90421CBF6E
:10313000474A90420BD0474A90421CBF464A9042B1
:1031400005D0464A90421CBF454A904258D12A6E4B
:10315000136813F4803F1EBF136843F48073136039
:10316000EA6E1AB1136843F48073136088421CBF7F
:103170002649884228D0264988421CBF25498842D2
:1031800022D0254988421CBF244988421CD02449AA
:1031900088421CBF2349884216D0234988421CBF5D
:1031A0002249884210D0224988421CBF21498842C6
:1031B0000AD0214988421CBF2049884204D02149B5
:1031C00088421CBF1E498842016841F0010101602C
:1031D000002006E0002085F834004FF400606865A8
:1031E0000120C0B2B0BD0268052363F34302026050
:1031F0002A6C002A3FF467AF026842F0040261E7DC
:10320000184A9042A3D0DFE7100002402800024095
:103210004000024058000240700002408800024016
:10322000A0000240B80002401004024028040240FE
:1032300040040240580402407004024088040240E6
:10324000A0040240B8040240085402581C5402581A
:103250003054025844540258585402586C5402587E
:103260009454025880540258B0B5044600F07CFBD8
:1032700005460548611C007818BF044400F074FB43
:10328000401BA042FAD3B0BD080000242DE9F04F46
:1032900087B00446E0B32068E74EB04204BF06F5AD
:1032A0008071616094F8981031B9002084F8990019
:1032B000204600F0C9F92068816921F01001816180
:1032C00000F052FB05462068816911F0080F05D017
:1032D00000F04AFB401B0B28F5D310E0816941F058
:1032E0000101816100F040FB05462068816911F011
:1032F000010F11D100F038FB401B0B28F5D3D4F897
:103300009C0040F00100C4F89C00032084F8980061
:10331000012007B0BDE8F08F8169B44641F0020199
:103320008161217C826942F04003012908BF22F0BB
:1033300040038361617C826922F48043012908BFD4
:1033400042F480438361A17C826942F48053012965
:1033500008BF22F4805383618269A16822F440721D
:103360000A438261826922F0A4028261026922F02A
:1033700010020261E268C2B1012A03D1826942F0FF
:10338000040211E08369022A02D143F020020BE01B
:1033900043F08003032A8361036943F01003036150
:1033A00003D1826942F020028261D4E90537A34A41
:1033B000D4E90765B1F5407F964602EB03426FF012
:1033C000FF0307F17F0703EB062646EA4767A5F1EF
:1033D000010647EA060742EA0702C26110D104F17A
:1033E00024076FF00F0586CF266B03EB0723013A06
:1033F00005EB06160EEB01411A4332431143C1603F
:10340000236E2BB1616ED0F8C0201143C0F8C010FC
:10341000E16D0693D94204910AD0D0F8C810A26E8B
:10342000874B53F8222021F007011143C0F8C81040
:10343000276C57B1D0F8BC10626C814B53F8222036
:1034400021F007011143C0F8BC10A56C5DB1D0F8A4
:10345000BC10E26C7A4B53F8222021F0700141EA53
:103460000211C0F8BC10216D002905910BD0D0F8D5
:10347000BC10626D724B53F8222021F4E06141EAE6
:103480000221C0F8BC10604504D161688A6822F04E
:1034900003028A604FF0000E01214FF6FC72C4F85F
:1034A0009CE0C4F894E084F89810636B0393D0F820
:1034B0008410914341EA8301C0F88410D0F884203D
:1034C000A16B22F47F02029142EA0142C0F88420FB
:1034D000CA18D0F888306FF38F0343EA8203C0F82C
:1034E0008830D0F88830D4F83CB023F4FE0302EBE7
:1034F0004B0243EA0B43C0F88830D0F8A0306FF39A
:103500008F0343EA8203C0F8A030D0F8A03023F440
:10351000FE0343EA0743C0F8A030D4F84480D0F853
:10352000B06008FB07226FF38F0646EA8206C0F8F8
:10353000B060D0F8B06026F4FE0646EA0546C0F852
:10354000B060E66C06FB052CD0F8AC206FF38F0260
:1035500042EA8C02C0F8AC200195D4F85490059A48
:10356000D0F8F01009FB02C56FF38F0109FB02F2DE
:1035700041EA8501C0F8F010D0F8F01021F47C1C6D
:10358000A16D4CEA0143C0F8F03005EB4103D0F8DF
:10359000C0506FF38F0545EA8303C0F8C030D0F800
:1035A000C030049D23F47C1343EA0543C0F8C030C7
:1035B000D0F8C030DDF818A023F07C5343EA0A634A
:1035C000C0F8C03008FB07F33D48039F00EB8700BD
:1035D000029F00F5406000EB870808EBCB0707EB84
:1035E000830C019B5E43A36EC4E91B08C4E91D7CE8
:1035F0000CEB860606EB820202EBC101C4E91F62F6
:10360000104A5D4301EB8505C4E921150AFB03F16E
:1036100005EB81019142C4F8901008D9D4F89C00C0
:1036200040F020006FE640F804EBD4F89010884298
:10363000F9D300206DE600BF00A000400000FFFFAE
:1036400080AE0108FCD3004010B5B8B0044633A8E2
:103650001421FDF7E7F902A8C021FDF7E3F920687E
:10366000174988422AD14FF400400024029002A852
:1036700003941E9402F010FF08B1FEF7F4F911480C
:10368000C16841F48071C160C16801F48071019129
:103690000199016841F00801016033A9006800F058
:1036A00008000190019802203490032033900920F3
:1036B000CDE935443790044800F076F838B010BDB5
:1036C00000A00040E0440258000C02582DE9F04FE1
:1036D000974A4FF00A0A4FF0000C4FF0000B0026FB
:1036E0009042944A08BF4FF0090A02444FEAB223BD
:1036F000092B38BF4FEAB22A31FA06F208BFBDE8FB
:10370000F08F012202FA06F515EA010445D08D4B2F
:10371000B2080CF00C080AFA08F753F822E00F235D
:1037200003FA08F90EEA0903BB4219D1824B1F467E
:10373000DB6FA343FB67D7F88030A343C7F8803023
:103740003B68A3433B604FF0B0473B68A3433B60FB
:103750007C4B1F4653F8223023EA090347F82230F6
:1037600003680322764C0F2702FA0BF2134303601F
:103770000CF01C0307FA03F304EA560707443C6AFB
:1037800024EA03033B62C3689343C3604368AB43CB
:103790004360836823EA020282600CF1040C0BF19F
:1037A000020B0136A8E700BF2DE9FC4F604A0A274B
:1037B0004FF0000B4FF0010E4FF0030A4FF00F09CE
:1037C0004FF0000C002690425A4A08BF09270244D5
:1037D0004FEAB223092B38BF4FEAB22700970A6895
:1037E00032FA06F308BFBDE8FC8F0EFA06F312EAC0
:1037F000030500F096804A6802F00304A4F1010872
:10380000B8F1010F18D8D0F80890CF680AFA0CF870
:1038100029EA080807FA0CF74FF00F0947EA0807EA
:103820008760C2F3001707FA06F8476827EA030320
:1038300043EA0803436001E0032C1DD0C7680AFA7D
:103840000CF3022C27EA03038F6807FA0CF743EA0C
:103850000703C36010D13A4C0BF01C0209FA02F3C3
:1038600004EA56040444276A27EA03030F6907FAA7
:1038700002F21A4322624A68076802F003030AFA56
:103880000CF412F4403F03FA0CF327EA040443EA71
:103890000403036045D0294A0BF00C0409FA04F72D
:1038A0001346126842F002021A601A68254B02F0B1
:1038B000020298460192019A26F00302D358BB43B4
:1038C000009F07FA04F44FF0B047234342F8083052
:1038D0003A684C6842EA050314F4801F08BF22EAE4
:1038E0000503154A14F4001F3B601746126842EAAC
:1038F000050308BF22EA050314F4003F3B60D7F834
:10390000802042EA050308BF22EA050314F4803F41
:10391000C7F88030FA6F42EA050308BF22EA0503C0
:10392000FB670BF1040B0CF1020C013657E700BFEB
:10393000002402580000FEA704000058F444025876
:10394000FCFFFF7F080400580069084018BF0120F1
:103950007047002A08BF0904816170470148006868
:10396000000C70470010005C05488068704700BF7D
:1039700003480078704700BF01484068704700BFA7
:103980000800002410B5044610B3D4F8880068B9C4
:10399000002084F8840020460CF0ECFED4F8C4101B
:1039A00011B91749C4F8C410204688472420C4F828
:1039B00088002068016821F001010160A06A10B14F
:1039C00020460CF003FD20460DF09CF9012801D1A2
:1039D000012010BD2068416821F490414160816858
:1039E00021F022018160816841F008018160016855
:1039F00041F0010101602046BDE810400CF050BDCF
:103A000019CD000890F84120202A03D190F84020D9
:103A1000012A01D1022118E0242280F84120026805
:103A2000136823F001031360136823F480531360B9
:103A3000136819431160116841F001011160002100
:103A4000202280F8401080F84120C8B2704790F8DA
:103A50004120202A03D190F84020012A01D10221DF
:103A600017E0242280F841200268136823F0010344
:103A70001360136823F4706343EA01211160116835
:103A800041F0010111600021202280F8401080F8EF
:103A90004120C8B270477047704710B590F8411088
:103AA000282914D190F8411090F84220002401F008
:103AB00003011143C9B20163202180F841104FF482
:103AC0000041446380F8424009F0A2FC00E0022477
:103AD000E0B210BD01688B690A6802F0800C13F433
:103AE000807F1FBFBCF1000F426C42F001024264B4
:103AF0001CBF4FF48072CA615A050AD5BCF1000F91
:103B00001FBF426C42F0080242644FF4806218BF4B
:103B1000CA619A050AD5BCF1000F1FBF426C42F082
:103B2000020242644FF4007218BFCA61416C11F086
:103B30000B0F18BF09F036BD7047000090F8411018
:103B400020290DD180B5282180F841100649416314
:103B50004FF4004109F08CFC0020BDE8804000E0FB
:103B60000220C0B2704700BF2DE10008704700007E
:103B700070B50446F0B394F8410000BB002036490C
:103B8000364A374BDFF8DCC0DFF8DCE0374D384E23
:103B900084F840002F486065A16536483649E265E3
:103BA0002366C4F864C0C4F868E0C4E91B56C4E9DD
:103BB0001D01E16F09B93149E1672046884724209A
:103BC00084F841002068016821F00101016061680A
:103BD00021F070610161816821F400418160D4E9C4
:103BE0000213012B08D141F400418160014651F8D4
:103BF000042F0CE0012070BD41F40441022B8160D0
:103C0000014651F8042F02D142F4006201E022F48F
:103C100000620A601A4A04F11003416811434160CE
:103C2000C16821F40041C1600ECB114341EA032178
:103C3000C160D4E9071211430160016841F001013C
:103C4000016000202021606484F84110206384F822
:103C5000420070BD753D0008733D00080B50000820
:103C600009500008713D00085F4800085D480008E1
:103C70006D3B0008973A0008993A0008854F000804
:103C8000008000022DE9FE4F044600201D469046AC
:103C90008946029094F84100202808D12068816963
:103CA00011F4004F03D194F84010012904D10220EF
:103CB000C0B203B0BDE8F08F2C4A24216FF39F29D6
:103CC0006F1C84F84110012184F8401000216164C8
:103CD000E16893460129114618BF01F5006141EAE8
:103CE00009014160FFF740FE06462068816982694C
:103CF000120942EA5111C90708D1002FF5D0FFF788
:103D000033FEE5B1801BA842EFD918E0D0F818A027
:103D10002046202100222B4600960AF0B2FA1AF023
:103D2000100F18D0A8B9206810215A46C16120216F
:103D3000C16102990131029102994145C8D3202005
:103D400084F84100002084F84000606C40F02000BE
:103D500060640120ACE70028FBD120682021C1610C
:103D6000002084F8400084F84110A1E70020000200
:103D70007047704770470000BCB5044690F8420099
:103D80000D46102805D194F84000012803D10225E2
:103D90002BE0012529E0012084F8400094F841003F
:103DA000212805D12046012109F032FB112008E02D
:103DB00094F84100222805D12046022109F028FB71
:103DC000122020636020294601224FF0007384F8FE
:103DD00041000748009020460AF026FA00252046B8
:103DE000202184F8405009F043FBE8B202B0B0BD96
:103DF000004000802DE9F84F044690F841001D4630
:103E000017468846202803D194F84000012804D1A1
:103E10000226F0B201B0BDE8F08F012684F84060C0
:103E2000FFF7A2FD8346009020464FF40041012297
:103E300019230AF026FA0028EBD1222084F8410049
:103E4000102084F84200002060646585676260632A
:103E5000EA48618DB1F5807F06D3FF21FF224FF044
:103E600080732185009005E0618D4FF000732185FE
:103E70000090CAB2204641460AF0D6F90A9F4FF692
:103E8000FF754FF000094FF0FF0A3AE0204639462F
:103E90005A460AF035FAE8BB2068406A616A087041
:103EA000608D01386085606A01306062208D411E3E
:103EB00021852942608D24D118B32046802100221B
:103EC0003B46CDF800B00AF0DCF918BB608DB0F5C8
:103ED000807F0BD320464146FF224FF08073A4F829
:103EE00028A0CDF800900AF09FF90AE0608D4146C5
:103EF0004FF000732085C2B22046CDF800900AF042
:103F000093F9608D0028C1D1204639465A460AF0FF
:103F100063FA08B101267CE720682021064B0026C1
:103F2000C16142681A40426084F8411084F84060E0
:103F300084F842606DE700BF00E800FE2DE9FC4117
:103F4000044690F841000D46202808D12168886970
:103F500010F4004F03D194F84000012804D1022747
:103F6000F8B202B0BDE8F081222084F841001020B0
:103F700084F842000020606452486385E0620120BA
:103F800084F840009C4862626063608DB0F5807F79
:103F900004D3FF234FF08078238505E0638D002B49
:103FA000238527D04FF00078E06BA8B1944E00270E
:103FB0002431C0E91367934EC0E90F67FFF716F885
:103FC00058B3202084F8410084F8427084F840708F
:103FD000606C40F010000AE0202084F841000020CE
:103FE00084F8420084F84000606C40F08000606417
:103FF0000127B5E7AA48294600224FF000730027A1
:104000006063A848009020460AF00EF9204602217D
:1040100084F8407009F02CFAA2E7A24894F828200E
:1040200029464346009020460AF0FEF884F8407086
:10403000208D618D081A10216085204609F018FA3C
:104040002068016841F40041016089E7BCB504467D
:1040500090F84100202808D12068806910F4004FB2
:1040600003D194F84000012803D10225E8B202B040
:10407000B0BD2220002584F84100102084F84200C1
:10408000104865646385E062012084F84000E648DA
:1040900062626063608DFF2803D94FF08073FF2058
:1040A00002E0608D4FF000737E4A20850092C2B21C
:1040B00020460AF0B9F82046022184F8405009F061
:1040C000D7F9D3E70000FFFF2DE9F843044690F845
:1040D000410016460D46202803D194F840000128DF
:1040E00004D10227F8B201B0BDE8F083222108987C
:1040F00084F84110102184F84210002161640121EC
:104100006385E06284F84010C44966626163618D32
:10411000FF2903D94FF08078FF2302E0638DD4F8A4
:104120002C8023855F4F216B122904D1B0F52A4FD3
:1041300018BFAA285DD1204609F0B9F8608DB946AC
:10414000FF2898BFD4F82C80238DCBB1E06B48B307
:10415000B34900273246C0E913172A49C0E90F17AF
:1041600021682431FEF742FF50B3202084F841003B
:1041700084F8427084F84070606C40F010001CE0DD
:10418000DE48294600224FF0007360632046009706
:1041900000270AF049F82046022184F8407009F00F
:1041A00067F99FE7202084F84100002084F842004E
:1041B00084F84000606C40F080006064012791E763
:1041C00094F82820204629464346CDF800900AF06E
:1041D0002BF884F84070208D618D081A10216085BD
:1041E000204609F045F92068016841F4004101606A
:1041F00078E74FF00009A8E769DB00080024008099
:10420000E1D2000827D300087CB5044690F84100AD
:104210000D46202803D194F84000012801D1022541
:1042200039E02221069884F84110102184F84210C8
:104230000021616401216385E06284F84010AF4988
:1042400062626163618DFF2903D94FF08076FF219F
:1042500001E0618DE66A2185216B122904D1B0F558
:104260002A4F18BFAA2819D1204609F020F8618DDD
:104270000C48FF2998BFE66A94F828200090204651
:104280002946334609F0D0FF00252046022184F854
:10429000405009F0EDF8E8B202B070BD0020EBE745
:1042A00067DC0008002400802DE9FC47044690F8F4
:1042B00041000D46202803D194F84000012804D184
:1042C0000225E8B202B0BDE8F08721210A9884F8FF
:1042D0004110102184F8421000216164012163859E
:1042E000E06284F840104D4962626163618DFF298C
:1042F00003D94FF08078FF2102E0618DD4F82C8043
:1043000040F000764FF000092185B6F1007F0BD117
:1043100051B1236812F8017B89469F6262624A1E8E
:104320002285628D013A6285216B112904D1B0F595
:104330002A4F18BFAA2855D1204608F0B8FF608D33
:10434000C849FF2898BFD4F82C80238DD3B1A06B27
:1043500018B38A4632490027C0E913173149C0E92A
:104360000F172268616A2832FEF740FE90B32020C2
:1043700084F8410084F8427084F84070606C40F02A
:10438000100015E05D48B6F1007F606313D1009125
:104390005FFA89F22046294611E0202084F8410086
:1043A000002084F8420084F84000606C40F08000F7
:1043B0006064012585E70091204629460022434696
:1043C00009F032FF00252046012184F8405009F011
:1043D0004FF876E7B6F1007F06D1CDF800A05FFA7E
:1043E00089F205E00021B0E794F82820CDF800A07C
:1043F00020462946434609F017FF002584F840501F
:10440000208D618D081A10216085204609F030F852
:104410002068016841F48041016052E769DB0008CF
:10442000E1D200087BD3000867DC00082DE9FC41DD
:10443000044690F841000D46202803D194F840002E
:10444000012801D1022553E02121089884F8411068
:10445000102184F842100021616401216385E0622B
:1044600084F84010D14962626163618DFF2903D9EC
:104470004FF08078FF2102E0618DD4F82C8040F06D
:10448000007700262185B7F1007F0BD151B1236859
:1044900012F8016B9E6262624A1E0E462285628D90
:1044A000013A6285216B112904D1B0F52A4F18BF5A
:1044B000AA2821D1204608F0FAFE618DE648FF299E
:1044C00098BFD4F82C80B7F1007F02D10090F2B2EF
:1044D00002E094F82820009020462946434609F03F
:1044E000A3FE00252046012184F8405008F0C0FFBB
:1044F000E8B202B0BDE8F0810020E4E767DC000824
:104500002DE9F84F044690F841001D4617468846AD
:10451000202803D194F84000012804D10226F0B2EB
:1045200001B0BDE8F08F012684F84060FFF71CFA67
:104530008346009020464FF400410122192309F0E0
:10454000A0FE0028EBD1212084F84100102084F83F
:10455000420000206064658567626063608DB0F52D
:10456000807F04D3FF204FF08073208505E0608DAD
:10457000002820855FD04FF00073216817F8012BC9
:104580008A62411E6762C2B220462185618D01396F
:104590006185B1490091414609F046FE0A9F4FF6F8
:1045A000FF754FF000094FF0FF0A39E02046394609
:1045B0005A4609F03BFFE0BB616A206811F8012B05
:1045C0008262608D013860856162208D411E218587
:1045D0002942608D24D118B32046802100223B4619
:1045E000CDF800B009F04DFE18BB608DB0F5807FAE
:1045F0000BD320464146FF224FF08073A4F828A039
:10460000CDF8009009F010FE0AE0608D41464FF0B1
:1046100000732085C2B22046CDF8009009F004FE58
:10462000608D0028C2D1204639465A4609F0D4FE92
:1046300048B1012673E78848414600224FF00073D5
:1046400000902046A8E720682021F74B0026C16192
:1046500042681A40426084F8411084F8406084F84F
:1046600042605CE7002000802DE9FC41044690F8A0
:1046700041000D46202808D12668B06910F4004F8B
:1046800003D194F84000012804D10227F8B202B007
:10469000BDE8F081212084F84100102084F8420018
:1046A000002060646A486385E062012084F840006D
:1046B0003B4862626063608DB0F5807F04D3FF2069
:1046C0004FF08078208505E0608D002820852BD074
:1046D0004FF0007812F8011B46F8281F411E626255
:1046E0002185608D013860854FF6FF70014219D039
:1046F000A06B60B32B4B0027C0E913372A4BC0E9EE
:104700000F378BB211463246FEF770FC68B320209B
:1047100084F8410084F8427084F84070606C40F086
:1047200010001FE0012200E000224A4829464FF015
:104730000073606348480090204609F075FD00272B
:104740002046012184F8407008F092FE9EE7202068
:1047500084F84100002084F8420084F84000606C36
:1047600040F080006064012790E794F82800EE494B
:104770004346013000912946C2B2204609F054FD5B
:1047800084F84070208D618D081A102160852046C4
:1047900008F06EFE2068016841F48041016075E711
:1047A00069DB0008E1D200087BD3000867DC000861
:1047B000F8B5044690F84100202808D120688669A1
:1047C00016F4004F03D194F84060012E03D1022566
:1047D000E8B201B0F0BD2126D34F84F84160102625
:1047E00084F84260002666646385FA4BE362012325
:1047F00084F84030174B62626363638DB3F5807F4A
:1048000004D3FF254FF08073258505E0658D002DCD
:1048100025850ED04FF0007312F8016B8662681E7A
:104820006262EAB22085608D01386085009720467B
:1048300004E0204600224FF00073009709F0F4FCDA
:1048400000252046012184F8405008F011FEBFE702
:104850000000FFFF67DC0008002000807047704701
:104860002DE9F84F044690F841001E4617468B4646
:10487000202812D1DDF82880B8F1000F1CBFDDF828
:104880002CA0BAF1000F04D14FF400706064012530
:1048900004E094F84000012804D10225E8B201B0F8
:1048A000BDE8F08F012584F84050FFF75DF88146A0
:1048B000009020464FF400410122192309F0E1FC49
:1048C0000028EBD122200C990025F2B2002384F8B5
:1048D0004100402084F8420052486564C4F82480B6
:1048E0006563A4F82AA0884659468246A0F58060F0
:1048F0000090204609F098FC204641464A4609F0BF
:1049000095FDB0B9012E08D02068390A4A46816267
:104910002046414609F08AFD58B92068F9B20022C4
:104920004346816220464021CDF8009009F0A9FC61
:1049300010B184F84050AAE7608DB0F5807F09D3AC
:10494000FF205946FF224FF080732085CDF800A04C
:10495000204608E0608D59464FF000732085C2B2B2
:104960002046CDF800A009F05FFC00264FF6FF7747
:104970004FF0FF0A2046042100224346CDF8009064
:1049800009F07FFC00287FF482AF2068406A616AEA
:104990000870608D01386085606A01306062208D2A
:1049A000411E21853942608D22D108B320468021E5
:1049B00000224346CDF8009009F063FC00287FF404
:1049C00066AF608DB0F5807F08D3A4F828A000966C
:1049D00020465946FF224FF0807307E0608D59460C
:1049E0004FF000732085C2B22046009609F01CFCEF
:1049F000608D0028BED1204641464A4609F0ECFCB5
:104A000000287FF444AF20682021E14B0025C161DC
:104A100042681A40426084F8411084F8405084F89B
:104A200042503BE70024008000E800FEF8B5044651
:104A300090F841001E4615460F4620280ED1069AD2
:104A400072B1079860B1D4F800C0DCF8183013F4E4
:104A5000004F03D194F84030012B08D1022503E028
:104A60004FF4007001256064E8B201B0F0BD22236C
:104A700084F84130402384F8423000236364608529
:104A80005448E0620120E76484F8400024486262F0
:104A90006063608DFF2894BF638DFF23012E238503
:104AA00005D1E8B2CCF828004FF0FF3003E0280A27
:104AB000CCF82800E8B22065E06BB0B1F3490025DE
:104AC000C0E913151749C0E90F150CF12401FEF7D1
:104AD0008DFAB0B1202084F8410084F8425084F867
:104AE0004050606C40F01000BCE7202084F841008A
:104AF000002084F8420084F84000606C40F08000A0
:104B0000B0E7E448F2B2394600230090204609F0AD
:104B10008BFB2046012184F8405008F0A9FCA3E754
:104B200099DD000827D3000800200080BCB50446AA
:104B300090F84100202817D1DDF818E0BEF1000FF1
:104B40001CBFDDF81CC0BCF1000F04D14FF4007095
:104B50000125606409E02068856915F4004F03D1E0
:104B600094F84050012D03D10225E8B202B0B0BD47
:104B70002225012B84F841504FF0400584F8425023
:104B80004FF000056564EF4DA4F82AC0E5624FF0D0
:104B9000010584F84050EC4DC4F824E06563E164FD
:104BA00004D1D2B282624FF0FF3002E0150A856272
:104BB000D0B22065E548DAB20023002500902046F7
:104BC00009F032FB2046012184F8405008F050FCE7
:104BD000CBE700BF0000FFFF2DE9F84F044690F837
:104BE00041001E4617468B46202812D1DDF828804A
:104BF000B8F1000F1CBFDDF82CA0BAF1000F04D1F2
:104C00004FF400706064012504E094F8400001282E
:104C100004D10225E8B201B0BDE8F08F012584F887
:104C20004050FEF7A1FE8146009020464FF400411F
:104C30000122192309F025FB0028EBD121200C9932
:104C40000025F2B24FF0807384F84100402084F8D0
:104C50004200BE486564C4F824806563A4F82AA0B5
:104C6000884659460090204609F0DEFA2046414623
:104C70004A4609F0DBFBB0B9012E08D02068390A9A
:104C80004A4681622046414609F0D0FB58B9206867
:104C9000F9B200224346816220468021CDF800907F
:104CA00009F0EFFA10B184F84050ACE7608DB0F530
:104CB000807F09D3FF205946FF224FF08073208563
:104CC00000200090204608E0608D00214FF0007326
:104CD00020850091C2B22046594609F0A5FA4FF648
:104CE000FF7600274FF0FF0A204641464A4609F06A
:104CF0009DFB00287FF487AF616A206811F8012BC3
:104D00008262608D013860856162208D411E21853F
:104D10003142608D22D108B32046802100224346D3
:104D2000CDF8009009F0ADFA00287FF46CAF608DEB
:104D3000B0F5807F08D3A4F828A0009720465946F4
:104D4000FF224FF0807307E0608D59464FF00073EB
:104D50002085C2B22046009709F066FA608D0028CF
:104D6000C2D1204641464A4609F036FB00287FF46E
:104D70004AAF20682021064B0025C16142681A40D5
:104D8000426084F8411084F8405084F8425041E772
:104D900000E800FEF8B5044690F841001E460D46B6
:104DA00020280ED1069971B1079860B1D4F800C0DF
:104DB000DCF8183013F4004F03D194F84030012B85
:104DC00008D1022703E04FF4007001276064F8B2B5
:104DD00001B0F0BD212384F84130402384F84230F3
:104DE0000023636460855748E0620120E56484F82D
:104DF0004000254861626063608DFF2894BF638D29
:104E0000FF23012E238505D1D0B2CCF828004FF026
:104E1000FF3003E0100ACCF82800D0B22065A06B68
:104E2000B0B11A4A0027C0E91327194AC0E90F2771
:104E30000CF12802FEF7DAF8B0B1202084F8410026
:104E400084F8427084F84070606C40F01000BCE759
:104E5000202084F84100002084F8420084F84000BB
:104E6000606C40F08000B0E73848F2B229464FF05D
:104E700080730090204609F0D7F92046012184F87C
:104E8000407008F0F5FAA2E799DD0008E1D20008C9
:104E90007BD30008002000807CB5044690F84100D8
:104EA000202817D1DDF818C0BCF1000F1CBFDDF8B9
:104EB0001CE0BEF1000F04D14FF4007001256064C6
:104EC00009E02068856915F4004F03D194F840503B
:104ED000012D03D10225E8B202B070BDE44E2125B8
:104EE000012B84F841504FF0400584F842504FF0B8
:104EF00000056564A4F82AE0E6624FF0010684F834
:104F00004060114E2585C4F824C06663E16404D175
:104F1000D2B282624FF0FF3002E0160A8662D0B24F
:104F200020650A48DAB24FF080730090204609F0FD
:104F30007BF900252046012184F8405008F098FABA
:104F4000C9E700BF0000FFFFC5DE000800200080A9
:104F500000682A49884218BF704710B50848294C94
:104F6000016821F48001016020464FF48061FEF762
:104F7000ADFB20464FF40061BDE81040FEF7A6BB34
:104F8000E8440258B0B5B8B0044633A81421FBF782
:104F900049FD02A8C021FBF745FD2068174988425A
:104FA0002AD108200024029002A80394239401F03F
:104FB00073FA08B1FCF757FD114D33A9286840F08A
:104FC00002002860286800F0020001900198122079
:104FD00034904FF4406033900420CDE9354437904D
:104FE0000848FEF7E1FBA86840F48000A860A868C4
:104FF00000F480000190019838B0B0BD0058004026
:10500000E044025800040258704770472DE9FC4103
:10501000044690F841001D4616460F46202805D14B
:1050200037B12EB194F84000012805D102263CE0AA
:105030004FF40070606437E0012084F84000FEF710
:1050400093FC8046222000222B4684F84100202039
:1050500084F8420000206064668567626063082609
:10506000608D20852068416821F400414160204620
:105070000821CDF8008009F004F9216820B14868C2
:1050800040F4004048600FE0CE6120464FF480318C
:1050900001222B46CDF8008009F0F3F8E0B120683A
:1050A000416841F4004141600126F0B202B0BDE820
:1050B000F08120462946424609F022F9216888BB42
:1050C000486A616A0870606A01306062608D013808
:1050D0006085208D01382085608D0028E9D120462B
:1050E0002946424609F078F921680028C7D12027CF
:1050F000204601222B460126CF614FF40041CDF816
:10510000008009F0BEF8216800284A6842F4004295
:105110004A60CAD1002684F8417084F8406084F85F
:105120004260C2E7486840F400404860886910F077
:10513000040FB9D0486A616A0870606A0130606221
:10514000608D01386085208D01382085ACE7000036
:10515000B0B5044690F841008C4620280DD1BCF132
:10516000000F18BF002A04D14FF4007001256064BD
:1051700004E094F84000012802D10225E8B2B0BD55
:105180002220002184F84100202084F842000120E0
:105190006164628584F840008B48C4F824C0606371
:1051A0003348638DE0622385E06BB8B1874AC0E97C
:1051B0001321874AC0E90F21624621682431FDF797
:1051C00015FFB0B1282084F84100002084F8420087
:1051D00084F84000606C40F01000C7E7282084F895
:1051E000410084F8421084F84010606C40F0800068
:1051F000BCE720680025416821F400414160204659
:105200004FF4004184F8405008F032F920680168FA
:1052100041F400410160B1E710B590F84130202B16
:1052200003D190F84030012B01D102241DE022234C
:10523000002480F84130202380F842304464D0F8C4
:1052400000C0DCF8043023F40043CCF8043042857D
:1052500041629349064A416380F84040418DC262F1
:10526000018548F2020108F003F9E0B210BD00BF69
:105270000000FFFFF8B5044690F841001E461746AF
:105280000D4600F0280028280FD15DB157B1204607
:1052900048F2020108F0BCF894F84000012808D157
:1052A000022503E04FF4007060640125E8B201B00C
:1052B000F0BD012084F8400094F84100292816D15F
:1052C0002046012108F0A4F82168086810F4804FF6
:1052D0001CBFA06B002821D00A6822F480420A601B
:1052E000F8490165FCF75AFDC0B1A06B14E094F8D1
:1052F00041002A2812D12068016811F4004F0DD016
:10530000016821F400410160E06B38B1ED490165AD
:10531000FCF744FD10B1E06B016D88472A200021A5
:1053200084F84100202084F84200616422685068BB
:1053300020F400405060AF48678565626063638D0C
:10534000E6622385E06BB8B1AB4FC0E91371204F23
:10535000C0E90F7102F124012A46FDF747FEB0B102
:10536000282084F84100002084F8420084F840009E
:10537000606C40F0100097E7282084F8410084F822
:10538000421084F84010606C40F080008CE70025EB
:10539000208D2585618D081A608520688269816964
:1053A00012F0080F04D011F4803104BF0821C1614C
:1053B00084F84050016841F400410160204648F201
:1053C000020108F055F871E701E00008E1D2000899
:1053D000CFD300082DE9F041044690F841009846EB
:1053E00017460E4600F0280028280FD15EB157B1AD
:1053F000204648F2020108F00BF894F8400001281A
:1054000008D1022503E04FF4007060640125E8B282
:10541000BDE8F081012084F8400094F8410029287B
:1054200016D12046012107F0F3FF2068016811F42E
:10543000804F0DD0016821F480410160A06B38B12C
:10544000A0490165FCF7AAFC10B1A06B016D88476B
:105450002A20002584F84100202084F84200656459
:105460002068416821F40041416097496785666280
:105470006163618DC4F82C8021858269816912F095
:10548000080F04D011F4803104BF0821C161204607
:1054900048F2020184F8405007F0EAFFB7E700BF86
:1054A0002DE10008F8B5044690F841001E46174665
:1054B0000D4600F0280028280AD135B12FB194F804
:1054C0004000012808D1022503E04FF40070606419
:1054D0000125E8B201B0F0BD012048F2010184F8D5
:1054E0004000204607F094FF94F841002A2816D186
:1054F0002046022107F08CFF2168086810F4004F55
:105500001CBFE06B002821D00A6822F400420A6028
:105510006C490165FCF742FCC0B1E06B14E094F803
:105520004100292812D12068016811F4804F0DD064
:10553000016821F480410160A06B38B161490165C7
:10554000FCF72CFC10B1A06B016D884729200021CD
:1055500084F84100202084F8420061642268506889
:1055600020F400405060F948678565626063638D90
:10557000E6622385A06BB0B1F54F2832C0E9137104
:10558000F44FC0E90F712946FDF730FDB0B1282076
:1055900084F84100002084F8420084F84000606CE8
:1055A00040F0100093E7282084F8410084F842106E
:1055B00084F84010606C40F0800088E70025208D62
:1055C0002585618D081A608520688269816912F0DD
:1055D000080F1EBF11F480310821C16184F84050CA
:1055E000016841F48041016020464FF4004107F01A
:1055F0003FFF6EE701E00008E1D200082DE9F0412D
:10560000044690F84100984617460E4600F02800E0
:1056100028280FD15EB157B1204648F2010107F0AA
:10562000F7FE94F84000012808D1022503E04FF46A
:10563000007060640125E8B2BDE8F081012084F8C3
:10564000400094F841002A2816D12046022107F094
:10565000DFFE2068016811F4004F0DD0016821F4CD
:1056600000410160E06B38B116490165FCF796FB1B
:1056700010B1E06B016D88472920002584F84100B6
:10568000202084F8420065642068416821F40041CC
:105690004160CF49678566626163618DC4F82C8083
:1056A00021858269816912F0080F1EBF11F48031D3
:1056B0000821C161204684F8405048F2010107F0FA
:1056C000D7FEB8E7CBD200082DE100082DE9FC4158
:1056D000044690F841001D4617460E46202805D185
:1056E00036B12FB194F84000012806D102267FE0A0
:1056F0004FF40070012660647AE0012084F84000D5
:10570000FEF732F98046212000222B4684F8410022
:10571000202084F842000020606466626063678530
:105720002068416821F40041416020460821CDF8FD
:10573000008008F0A6FD002854D1206AB0F5003F93
:1057400009D1616A206811F8012B82626162618D62
:105750000139618500E020680821C161E068022804
:1057600011D12046082100222B46CDF800800826C2
:1057700008F087FD216828B14868012640F4004000
:10578000486035E0CE6120464FF4803100222B4640
:10579000CDF8008008F075FD20BB0EE020462946BC
:1057A000424608F043FEE8B9616A206811F8012B0F
:1057B00082626162608D01386085608D0028EDD164
:1057C0002046102100222B46CDF80080102608F03C
:1057D00058FD88B1618D606C21B9042802D1002088
:1057E000606418E020680126416841F4004141608E
:1057F000F0B202B0BDE8F081204607F073FE2068E9
:1058000029464246C661204608F0E6FD2168002888
:10581000B2D12020C86120464FF4004101222B461E
:10582000CDF80080012608F02CFD216800284A6888
:1058300042F400424A60DBD12020002684F8410077
:1058400084F8406084F84260D2E70000B0B50446B6
:1058500090F84100202805D131B12AB194F84000D8
:10586000012807D1022503E04FF400706064012590
:10587000E8B2B0BD212084F84100202084F8420025
:10588000002060640120628584F840002F48616236
:1058900060635048628DE0622285206AB0F5003F67
:1058A00009D1206811F8013B013A836261622285C7
:1058B000608D01386085608DD8B1A06B38B3244B02
:1058C0000025C0E91335234BC0E90F3593B2D4F856
:1058D00000C00CF12802FDF789FB20B3282084F8D2
:1058E000410084F8425084F84050606C40F0100051
:1058F000BCE720680025416821F400414160204652
:105900004FF4004184F8405007F0B2FDB0E7282082
:1059100084F84100002084F8420084F84000606C64
:1059200040F08000A2E72068416821F40041416016
:1059300020464FF4004184F8405007F099FD20685C
:10594000016841F48041016092E700BF01E0000876
:10595000E1D20008F3D3000810B590F84130202BB5
:1059600003D190F84030012B01D102242EE02123F5
:10597000002480F84130202380F84230012380F851
:1059800040304464D0F800C0DCF8043023F4004315
:10599000CCF8043042850E4A41620E4B4263428D80
:1059A000C3620285036AB3F5003F09D111F8013BD8
:1059B000CCF828304162511E0185418D0139418565
:1059C00048F2010180F8404007F052FDE0B210BDFE
:1059D0002DE100080000FFFF90F84110202901BFD1
:1059E0000449816700207047416C41F48071416433
:1059F00001207047993A000890F84120202A0DD1E3
:105A00000A290ED8DFE801F0062024282C3034388B
:105A10003C171B00264941650020704790F8412043
:105A20002AB1416C41F480714164012070470A2918
:105A300005D00929F5D11549C167002070471249E1
:105A4000C0F8801000207047184981650020704719
:105A50001549C16500207047124901660020704752
:105A60000F494166002070470C498166002070474D
:105A70000949C16600207047064901670020704748
:105A80000349416700207047514F0008854F0008C7
:105A9000973A00086D3B00085D4800085F48000821
:105AA000713D0008095000080B500008733D0008C4
:105AB000753D00084A48017882681144816070474A
:105AC00080B5032000F0B2F901F028FB0E49FA4B33
:105AD0000A68C2F3032209689A5C01F00F01595C5D
